:100000000C94DA050C9402060C9402060C94020679
:100010000C9402060C9402060C9402060C94020640
:100020000C9402060C9402060C94F50C0C94670DCB
:100030000C9402060C9402060C9402060C94020620
:100040000C9402060C9402060C9402060C94020610
:100050000C9402060C9402060C9402060C94A11057
:100060000C9402060C9402060C9402060C940206F0
:100070000C9402060C9402060C9402060C940206E0
:100080000C9402060C9402060C9402060C940206D0
:100090000C9402060C9402060C9402060C940206C0
:1000A0000C9402060C9402060C9402063A065A06B8
:1000B0008E0607075707C807B608E5084509BD09B2
:1000C000480A350B350B350B350B400B400B4B0BF2
:1000D0004B0B560B560B33193E1959197F197F19C3
:1000E000AD19D419E819E8190B1A2C1A20204E69F9
:1000F000636520776F726B210020596F75206265F0
:100100006174206D652100436C6F73652067616DBC
:1001100065210049206A75737420626561742079D5
:100120006F7521004469736170706F696E74696ED8
:100130006720726F756E644020666F7220796F75EC
:100140002100436C6F73652067616D652062757473
:10015000204920776F6E2100436F6E67726174755E
:100160006C6174696F6E734020796F7520776F6E64
:1001700021002020202020204D696E652E002020A7
:10018000202020596F7572732E00407468697320A7
:10019000636172642E00492077696C6C20706C6119
:1001A000794000496E207468697320726F756E64BF
:1001B00020776520706C61790A666F7220747269AD
:1001C000636B7320746F207365652077686F0A20F6
:1001D0002077696E73207468652067616D652E20D5
:1001E000205573650A20796F7572207472756D7071
:1001F0007320776973656C7921002054686174738A
:100200002074686520656E640A206F6620706861DE
:100210007365206F6E652E002020202020204D6900
:100220006E652E002020202020596F7572732E00DD
:10023000407468697320636172642E004920776995
:100240006C6C20706C617940004D79207475726E11
:1002500020746F2073746172744000596F7572203E
:100260007475726E20746F207374617274400049EB
:100270006E207468697320726F756E6420776520D4
:10028000706C61790A746F2077696E2074686520DC
:1002900075702D7475726E65640A63617264206195
:1002A0006E64206275696C64206120677265617498
:1002B0000A68616E6420666F7220706861736520E1
:1002C00074776F2100080B0002020201000904008C
:1002D00000010202000005240010010524010101B3
:1002E00004240206052406000107058103100040CE
:1002F00009040100020A0000000705020240000094
:10030000070583024000000403090412010002EF04
:100310000201404123368000010102030141726461
:1003200075696E6F204C4C430041726475696E6F45
:10033000204C656F6E6172646F00D5F08D14A1C89A
:1003400081CFD9F1AF200003051F051F03051F044E
:100350001B03050F190F030508100F05051F001FCC
:10036000111F030507051F03051F151F03051905A9
:100370000303051F151D030517151D030507041F9E
:10038000030511151F03051D15170817F80452AAB8
:1003900052AA5202FF0055AA55AA55000F10252A4D
:1003A000252A25200080F8FCFEFFFEFCF8F8F8F86E
:1003B000F0E0C0070F1F3F7FFFFFFFFFFF7F3F1FE2
:1003C0000F070F100000807804FA04D810D010D066
:1003D00020C000000708172C5F5F5B5F5B2F1708CA
:1003E000070005060E1F3E1F0E0C1E3F1E0C0C2E96
:1003F0003F2E0C0C2F372F0CFCFEFFFFFFFFFFFFE3
:10040000FFFFFFFFFFFFFFFEFCFFFFFFFFFFFFFF00
:10041000FFFFFFFFFFFFFFFFFFFF1F3F7F7F7F7F8C
:100420007F7F7F7F7F7F7F7F7F3F1F111700F804D3
:10043000F2FAFAFAFAFAFAFAFAFAF204F80000FF13
:1004400000FFFFFFFFFFFFFFFFFFFFFF00FF0000B8
:100450000F10272F2F2F2F2F2F2F2F2F27100F0069
:100460000309FEFFFE000100070302070707070755
:10047000023F06DBCF666DFD07FFE7FFFFFFFFFFD3
:10048000FFFFFFFFFFFFFFFFFFFFFFFFFFFFFFFF7C
:10049000FFFF7F3F1F010103070F0F0F0F0F1F3FCC
:1004A0007FFFFF7F3D190101010101000000001ADB
:1004B00010BFBFBF1FEFEFEFEFEF1FBFBFBFBFBF4B
:1004C000BFBFBFBFBFBFBF5F201F0000000102054D
:1004D000050505050219245A5A24180000000000D9
:1004E00000000000000F1F3F7FFFFFFFFF08080014
:1004F0000F102F5F5F5F5FFFFFFFFFFEFCF8F0084C
:1005000008FAFAFAFAF408F000F0F8FCFEFFFFFF30
:10051000FF080800F008F4FAFAFAFA03081F051FAA
:100520001F151B1F11111F110E1F15111F05011F74
:10053000111D1F041F001F0010101F1F041B1F1080
:10054000101F061F1F011F1F111F1F05071F311F2F
:100550001F051B17151D011F011F101F0F100F1F57
:100560000C1F1B041B071C071915130C121E1F124E
:100570000C1E12120C121F0C1A14041F052E2A1E18
:100580001F021C001D00201D001F041A011F001E59
:10059000041E1E021E1E121E3E120C0C123E1E02D5
:1005A0000614120A020F121E101E0E100E1E081E36
:1005B0001A041A2E281E1A12161F111F121F101DA0
:1005C000151711151F07041F17151D1F151D0101F4
:1005D0001F1F151F17151F0017000010000404042B
:1005E000040E040229060A00001000100080F8FC26
:1005F000FEFFFEFCF8F8F8F8F0E0C0070F1F3F7FA1
:10060000FFFFFFFFFF7F3F1F0F070F1000008078E5
:1006100004FA04D810D010D020C000000708172C0E
:100620005F5F5B5F5B2F17080700020203030C0884
:100630003B3B3B6B6B4B4B6B6B3B3BBB3D3B3B6B78
:100640006B4B4B6B6B3B3BBD373B3B6B6B4B4B6B1C
:100650006B3B3BB73D39357575555575753539BDAE
:100660003D39357575555579793939BD3D39397902
:1006700079595575753539BD1508D0D6F4F6F4F4A9
:10068000F6F496707B7076F4F6F4F4F6F4D6D0D0E7
:10069000D6F4F4F4F4F4F496707B7076F4F4F4F495
:1006A000F4F4D6D00000000000C0E0F0F8FCFEFF3B
:1006B000FFFFFFFFFFFFFFFFFFFFFFFFFFFFFFFF4A
:1006C000FFFFFFFFFFFFFEFCF8F0E0C000000000AE
:1006D000000000000000FFFFFFFFFFFFFFFFFFFF24
:1006E000FFFFFFFFFFFFFFFFFFFFFFFFFFFFFFFF1A
:1006F000FFFFFFFFFFFFFFFFFF0000000000000003
:100700000000FCFFFFFFFFFFFFFFFFFFFFFFFFFFFA
:10071000FFFFFFFFFFFFFFFFFFFFFFFFFFFFFFFFE9
:10072000FFFFFFFFFFFFFC000000000000000003D0
:10073000070F8F9FFFFFFFFFFFFFFFFFFFFFFFFF81
:10074000FFFFFFFFFFFFFFFFFFFFFFFFFFFFFF9F19
:100750008F0F070300000000C0E0F0F8FCFEFFFF71
:10076000FFFFFFFFFFFFFFFFFFFFFFFFFFFFFFFF99
:10077000FFFFFFFFFFFFFFFFFFFFFFFFFFFFFFFE8A
:10078000FCF8F0E0C00303030303030303030303C4
:100790000303030303030303030303030303030329
:1007A0000303030303030303030303030303030319
:1007B00003032D2A000000000000C02010080402DE
:1007C00082C282820202020A0A0A0A0A0A0A0A0A81
:1007D0000A0A0A0A0A12A40850A0C0000000000079
:1007E00000000000000000FF40800000FEFFFFFF4F
:1007F0007B3F3F3B3B7BFBFBFB7B3B3B3F3F7FFB35
:10080000FEFC003F80552AFF0000000000000000B1
:10081000000000FC03F95A81FCFD01010101010106
:10082000010101010101010101010101010101FCBD
:10083000FD8259F803FC00000000000000000000E9
:100840000304050990A7DF3E7EFEFEFE02000000C5
:100850000000000000000002FEFE7E3EDFA79009BF
:10086000050403000000000000C020D0E8F4FA797D
:10087000B95204022C5ABC79F978B81840B070709B
:10088000B04018B878F979BC5A2C4AA47BF1FAF434
:10089000E8D020C0000000030303010201000000B3
:1008A000000000000102010000000003030000003E
:1008B0000001020100000000000102010303030324
:1008C000000021080F0F08080006090B06000E03A0
:1008D000030E000F090F06000F0F000F02030F0099
:1008E0000E0F090D000E10BEBDBEBDBEBDBEBDBE0D
:1008F000BDBEBDBE000004000400040004000400EE
:100900000400004E080F0D0702000F050F0A000F2C
:100910000D0900020B0D00020B0D00000000000F7E
:100920000D0702000F0F0808000E03030E00030E50
:100930000E0300000006090B06000F02030F000063
:100940000000010F0F010E03030E000F0D07020040
:100950000F0D090E10A7C7A7C7A7C7A7C7A7C7A787
:10096000C7A70007070707070707070707070707BE
:100970000024080E1F1F1F0E0000000000000000D2
:100980000000001F0E040000000000000000000432
:100990000E1F00040E1F00592D00008080404040B3
:1009A000404040404040C0E018E4FAFD3D9D1DFA43
:1009B000FAFAFAF4F4F4F4E8E8E8D0D0D0D0A0A041
:1009C000A0A0404040808080800000000000000027
:1009D0000000000000000000000000000000000017
:1009E0000000000000000000000000000000000007
:1009F0000000F807F8FEFE07B707FFFFFFFFFF0F35
:100A0000F1FECF870286CEFCFFFFFFFFFFFFFFFF57
:100A1000FFFFFFFFFFFFFFFFFFFFFFFFFFFFFEFEE8
:100A2000FEFEFDFDFA7A8478000000000000000060
:100A300000000000000000000000000000000000B6
:100A40000000000000000000000000FF00FFFFE7C2
:100A5000E3C1E3E7FF7F87F8FFFFFFFFFFFFFFFF33
:100A6000FFFFFFFFFF7F7F3F1F0F0F070F3FFFFFBE
:100A7000FFFFFFFFFFFFFFFFFFFFFFFFFF1FE01F65
:100A8000000000F0980848C800F8282800F848C876
:100A90003000F838C0C038F80000F088F00000F8E6
:100AA000106080F86170F1F1F1F1F1F1610160F134
:100AB000F1F1F1F1F1F1610161F1F1F1F160006049
:100AC000F0F0F0F0F07060000161F1F1F1F1F1612E
:100AD00001012171F1F1F0F1F07020000081E1E1FC
:100AE000F1F0F1717170F1F0F0E18001C0E0F0F02F
:100AF0007170F1F0F0F0F17071F0F0E0C1000003FE
:100B00000F7FFFFFFFFEF8F8FF3F1FFFFFFFFFFC17
:100B1000F8F8FF1F0700000000FFFFFFFFFF383855
:100B2000383838FFFFFFFFFF0000000000FFFFFF25
:100B3000FFFF00000080CF1F3F7F7F7FFEFEFCFC99
:100B4000F8F9F1E000010303010000FFFFFFFFFFE0
:100B50000000010303010000000000010F1F1F1F20
:100B60000701000000030F1F1F0F0300000000001B
:100B7000081C1F1F1F1F1F1C0800081C1F1F1F1FF2
:100B80001F1C0800081C1F1F1F1F1F1C0800030F2D
:100B90000F1E1C1C1C1C1F1F1F0F0F070100000035
:100BA00000000C1E1F1F1F1F1F1E0C000000000056
:100BB0008B24872411241FBECFEFDAE0DEBFCDBF28
:100BC00012E0A0E0B1E0E6E5F2E502C005900D928A
:100BD000A039B107D9F727E0A0E9B2E001C01D9222
:100BE000A43FB207E1F715E0C9EDD5E004C02197B5
:100BF000FE010E941527C83DD107C9F70E94442273
:100C00000C941E290C9400004F925F926F927F9279
:100C10008F929F92AF92BF92CF92DF92EF92FF920C
:100C20000F931F93CF93DF9300D000D000D0CDB7A8
:100C3000DEB7DB014B012EE0820E911C7B013DE310
:100C4000E30EF11C8B0104591F4F19967C901997E4
:100C5000709418962C917222FC01448550E04B3020
:100C6000510508F033C55B016C01FA01EA5AFF4FE8
:100C70000C9415276FE672E0CE0101960E94BD0C20
:100C8000E12C00E02CE544E0BE016F5F7F4FC60120
:100C90000E946716CE0101960E94271273FE16C5A8
:100CA000D6015A961C925A978FEF5C968C935C975C
:100CB00081E067C1FB01868197818F709927892B1D
:100CC00021F48089882309F492C4D50150968C912F
:100CD00050978D3008F516968D919C9117978770D7
:100CE0009927892B09F0F2C4F801808191E0980FCF
:100CF0009083E80FF11D6181C4010E94EC18D801B6
:100D00008C9191E0980F9C93F801E80FF11D61819F
:100D1000C7010E94EC18DAC482E037C1DC015A96A0
:100D20008C915A978F5F5A968C93833528F48C3028
:100D3000F8F48B3029F0CAC4833509F444C0C6C422
:100D4000F801808191E0980F9083E80FF11D818177
:100D5000D6015D968C935D9792969C919297943074
:100D600009F0B4C46DE00E94F52692968C93AEC44F
:100D700042E5C6010E94A416F501EF55FF4F8081A0
:100D8000813059F46BE572E0CE0101960E94BD0CF2
:100D9000EE24E39400E021E50AC069E472E0CE01AC
:100DA00001960E94BD0CEE24E39400E027E441E0AC
:100DB000BE016F5F7F4FC6010E946716CE0101968C
:100DC0000E94271283C4F601138E13A2128EFB0118
:100DD000EF55FF4F8081813029F483E0D6011C96C6
:100DE0008C9303C084E0F601848761E0C4010E9413
:100DF000201862E0C7010E9420186BEB71E08FEAB7
:100E000096E00E94BA0FD6015D968C9186C0FC01D7
:100E1000828D863418F48F5F828F02C08FEF848FAB
:100E200075FE06C0F601838D882311F08150838FF3
:100E300076FE0DC0D6015B962C91422F50E0F50155
:100E4000808990E00197481759070CF4E5C373FEB9
:100E50003DC4B501C6010E94A91C882309F436C40B
:100E60008FEFD6015C968C935C975B966C91C40176
:100E70000E94D418F601868F128EF501EF55FF4FB0
:100E80008081811105C085E0D6011C968C9303C03A
:100E900084E0F6018487D6015B968C915B97F5011F
:100EA0009089891313C481505B968C930FC4DC0125
:100EB0005A968C915A978F5F5A968C93843299F0F8
:100EC00050F48F3108F002C446E4C6010E94A41613
:100ED0006CE372E013C28B3208F4F8C3873420F15C
:100EE000873449F1F3C3F601268D458D62A1C70110
:100EF0000E94DC1CD6015F968C93682FC7010E946C
:100F0000FA18682FC7010E94D41862EC71E08FEACA
:100F100096E00E94BA0FF601878D0E946D1189E05C
:100F200092E00E94B016D2C346E4C6010E94A41605
:100F300060E372E019C2D6015F968C915F978F3F94
:100F4000A9F45E962C915E975D964C915D97929672
:100F50006C91C7010E94DC1CF601878F682FC701C6
:100F60000E94FA18682FC7010E94D418D6015A9619
:100F70001C925A97F501EF55FF4F8081813021F483
:100F800085E01C968C93A2C383E0F60184879EC300
:100F9000DC015A968C915A978F5F5A968C938135C3
:100FA00009F447C018F48B3048F490C38C3908F426
:100FB000C2C08C3909F08AC386E0E7CF40E5C6019C
:100FC0000E94A416B501C6010E948016811119C0A5
:100FD00064E272E0CE0101960E94BD0CEE24E3941F
:100FE00000E028E341E0BE016F5F7F4FC6010E9431
:100FF0006716CE0101960E94271280E8F60180A3B1
:1010000065C368E172E0CE0101960E94BD0CEE243A
:10101000E39400E026E341E0BE016F5F7F4FC6012D
:101020000E946716CE0101960E94271280E8D60121
:1010300000C2F601868D2B01F0E44F0E511CD20147
:101040006C91F501E60FF11DE25BFF4F80836F5F4E
:101050006C933701B1E16B0E711CC3010E94B22188
:10106000F601878DD2016C91F501E60FF11DE25B6F
:10107000FF4F80836F5F6C93C3010E94B221B50163
:10108000C6010E948016F501EF55FF4F3F01811107
:101090001DC0D6015D966C91C4010E94EC18F6014A
:1010A000658DC4010E94FA18D6015C968C93F801F4
:1010B000808191E0980F9083E80FF11D6181C70155
:1010C0000E94EC1881E0D3018C931BC0F801808151
:1010D00091E0980F9083E80FF11D1181612FC401F9
:1010E0000E94EC18612FC4010E94FA18D6015C9688
:1010F0008C935C975D966C91C7010E94EC18F3018C
:101100001082D60159968C9159978D30A0F45A9639
:101110001C925A979FEF5E969C935E975F969C9366
:101120005F975D969C935D978F5F59968C935997C7
:1011300082E01C968C936AEF71E0CE0101960E94CA
:10114000BD0CEE24E39400E021E442E0BE016F5FB9
:101150007F4FC6010E946716CE0101960E9427129A
:101160004BE9B501C6010E94A416B0C263EA71E062
:10117000CE0101960E94BD0CE12C00E028E544E080
:10118000BE016F5F7F4FC6010E946716CE010196B8
:101190000E94271273FE9AC281E0D60159968C9361
:1011A00059975A961C925A978FEF5C968C935C973E
:1011B0005E968C935E975F968C93F501EF55FF4F8B
:1011C00080818130B1F587E0E0CEFC01828D8634EC
:1011D00090F58F5F828F75FC31C076FC36C073FE50
:1011E00075C2B501C6010E94A91C882309F46EC20C
:1011F0008FEFD6015C968C935C975B966C91C401E3
:101200000E94D418482FF601868F128E838DD50147
:1012100050969C91891302C08150838FF601878D6F
:101220008F3F09F5F501EF55FF4F8081882309F4C1
:1012300059C088E058C08FEF848FCDCFF601838DE1
:10124000882359F28150838FC8CFD6015B962C91A9
:10125000422F50E0F501808990E001974817590727
:101260000CF4DEC1BCCF3DE0632F0E94F526282F91
:10127000842F0E94F5262817A9F2F501E20FF11D2F
:10128000E859FF4F81E08083CDCFFC01828D8F5FD5
:10129000828F8432E1F148F18B3208F417C287342F
:1012A00008F45CC0873409F011C2F601878D8F3FC6
:1012B00081F4468D62A1C7010E94C21BD6015F96D0
:1012C0008C93682FC7010E94FA18682FC7010E94EB
:1012D000D418F601128EF501EF55FF4F8081813051
:1012E00009F071CF89E0D6014CCE8F3108F0EEC104
:1012F00046E4C6010E94A41666E971E0CE0101969B
:101300000E94BD0CEE24E39400E028E350CD468D0E
:1013100062A1C7010E94C21BF601878F682FC70117
:101320000E94FA18682FC7010E94D41860ED71E07E
:101330008FEA96E00E94BA0FD6015F968C910E94C8
:101340006D1189E092E00E94B01661E0C4010E9434
:10135000201862E0C7010E942018B8C146E4C60107
:101360000E94A4166AE871E0CE0101960E94BD0CAD
:10137000EE24E39400E026E31ACDDC015A968C912A
:101380005A978F5F5A968C93813530F48C3008F0E1
:1013900053C08B3029F09AC1813509F451C096C1F0
:1013A00040E5C6010E94A416B501C6010E94801640
:1013B000811121C06EE771E0CE0101960E94BD0C43
:1013C000EE24E39400E028E341E0BE016F5F7F4F2D
:1013D000C6010E946716CE0101960E942712F501F0
:1013E00086858F5F868780E8D60190968C9390974C
:1013F00091961C926BC1F50185AD8F5F85AF62E759
:1014000071E0CE0101960E94BD0CEE24E39400E051
:1014100026E341E0BE016F5F7F4FC6010E94671661
:10142000CE0101960E942712D60190961C929097A9
:1014300080E891968C934AC181E0F601808F46C185
:10144000D60159968C9159978F5F59968C93C60106
:101450000E948016F501EF55FF4F811106C081E013
:10146000808387E0F601848705C0108288E0D6017A
:101470001C968C93F601128E8FEF868F878F858F47
:1014800010A211A2818D8E3008F420C18AE07ECD99
:10149000DC015A968C918A3041F020F0893C08F0AA
:1014A00015C13FC08F5FF6013AC0DB011E96EC917B
:1014B0001E971F968C911F972E2F30E0280F311DFD
:1014C000DD968C91DD97DE966C912333310544F4E3
:1014D000482F50E0460F511D433351050CF4B0C066
:1014E00090E0860F911D821793070CF09EC068E56F
:1014F00071E0CE0101960E94BD0CEE24E39402E05F
:101500002EE641E0BE016F5F7F4FC6010E94671665
:10151000CE0101960E942712F601828D8F5F828F85
:10152000D5C0803528F491E0D60158969C9302C02E
:10153000883C19F08F5FF601828FD5011E968C9141
:101540001E97811104C0DD969C919923F9F0F50155
:10155000268137812F703327232BC1F4882331F064
:101560008150F501868787858F5F8787D501DD9656
:101570008C91DD97882351F08150DD968C93DD9717
:10158000DE968C91DE978F5FDE968C9373FE9EC005
:10159000F50197858685890F878796AD85AD890F7B
:1015A00086AF168615AED6015A961C928785823371
:1015B00008F087C086AD823308F083C0C8010E945E
:1015C0002B1660E0C4010E94671860E0C7010E940A
:1015D000671884E0D60192968C93929781E0599691
:1015E0008C9359979FEF5C969C935C97CACC60E074
:1015F000C4010E94671860E0C7010E946718C80113
:101600000E942B16F501EF55FF4F81E0908191303C
:1016100009F480E0808359CB2F5FF601238F17CC2C
:101620002F5FD6015B962C93DACD62E471E0CE0198
:1016300001960E94BD0CEE24E39402E024E661CF03
:101640008E2F90E08A30910558F06CEE70E0CE015C
:1016500001960E94BD0CEE24E39402E028E351CFF2
:10166000FC01EF59FF4F0C94152764E271E0CE01A5
:1016700001960E94BD0CEE24E39401E028E741CFDF
:1016800063E171E0CE0101960E94BD0CEE24E3946B
:1016900001E026E436CF67E071E0CE0101960E94BA
:1016A000BD0CEE24E39400E02EE32BCF69EF70E055
:1016B000CE0101960E94BD0CEE24E39402E020E4EA
:1016C00020CFF501ED55FF4F81E0808326960FB6C0
:1016D000F894DEBF0FBECDBFDF91CF911F910F9168
:1016E000FF90EF90DF90CF90BF90AF909F908F9042
:1016F0007F906F905F904F90089540919702509126
:101700009802209195023091960242175307B4F443
:101710009091E8009570E1F39091E80092FD19C076
:101720008093F100809197029091980201968F73B7
:101730009927892B19F48EEF8093E8008091970206
:10174000909198020196909398028093970281E07D
:10175000089580E00895DF92EF92FF920F931F9318
:10176000CF93DF93D82E8A017B01E40EF51EEB01A7
:10177000CE15DF0571F0D7FE03C0FE01849101C0D4
:1017800088810E947D0B21968111F2CF8FEF9FEF10
:1017900001C0C801DF91CF911F910F91FF90EF9091
:1017A000DF900895615030F02091F100FC0120831A
:1017B0000196F8CF289884E68093A1020895CF92ED
:1017C000DF92EF92FF920F931F93CF93DF936C0101
:1017D0007A018B01C0E0D0E0CE15DF0581F0D801A1
:1017E0006D918D01D601ED91FC910190F081E02D7C
:1017F000C6010995892B11F02196EECF7E01C70114
:10180000DF91CF911F910F91FF90EF90DF90CF90DC
:101810000895CF93DF931F92CDB7DEB76983DC01C4
:10182000ED91FC910280F381E02D41E050E0BE019A
:101830006F5F7F4F09950F90DF91CF91089583E0FF
:101840008093E9008091F200882319F08AE3809365
:10185000E8000895FC018485958597FD0BC09FB72E
:10186000F89482E08093E9008091F2009FBF90E0BD
:10187000019608959FB7F89482E08093E9008091E3
:10188000F2009FBF90E0089508950F931F93CF93A8
:10189000DF931F92CDB7DEB782E0898342E450E048
:1018A00065EC72E080E80E94AB0B0E94D81EDC0160
:1018B00012960D911C9113970115110589F0D8010D
:1018C000ED91FC910280F381E02DBE016F5F7F4FAF
:1018D000C801099597FD04C0F80100851185ECCF7A
:1018E00089810F90DF91CF911F910F9108950E94F0
:1018F000C71E90E008950F931F93CF93DF931F921D
:10190000CDB7DEB78C01FC018485958597FF0EC0AD
:10191000CE0101960E94991E019719F4898190E0E9
:1019200002C08FEF9FEFF80195878487F8018485C7
:1019300095850F90DF91CF911F910F910895CF93CF
:10194000DF931F92CDB7DEB7FC018485958597FDA7
:1019500005C02FEF3FEF358724870BC0CE010196DE
:101960000E94991E019719F4898190E002C08FEFBF
:101970009FEF0F90DF91CF910895EF92FF920F9319
:101980001F93CF93DF93EC01198218821B821A8276
:101990001D821C826115710509F18B01CB010E942A
:1019A0003C267C01BC01CE010E94B611811109C008
:1019B000CE01DF91CF911F910F91FF90EF900C948A
:1019C000DD11FD82EC82B80188819981DF91CF9190
:1019D0001F910F91FF90EF900C943526DF91CF91DE
:1019E0001F910F91FF90EF9008951F920F920FB6E5
:1019F0000F9211248F939F938091E1009091E100C9
:101A0000937F9093E10083FF0FC01092E90091E073
:101A10009093EB001092EC0092E39093ED00109203
:101A2000A20298E09093F00082FF20C093E0909390
:101A3000E9009091F200992319F09AE39093E8005D
:101A400090919A02992339F090919A029150909333
:101A50009A02992389F19091A102992339F09091EA
:101A6000A10291509093A102992341F184FF10C0EB
:101A70008091E2008E7E81608093E2008091E1009F
:101A80008F7E8093E10080919B028E7E806111C0E9
:101A900080FF16C08091E2008E7E80618093E2001C
:101AA0008091E1008E7E8093E10080919B028E7E8A
:101AB000816080939B0204C05D9ACDCF289AD6CFD7
:101AC0009F918F910F900FBE0F901F9018951F92AE
:101AD0000F920FB60F921124CF92DF92EF92FF92E6
:101AE0000F931F932F933F934F935F936F937F9326
:101AF0008F939F93AF93BF93EF93FF93CF93DF9316
:101B0000CDB7DEB76C97DEBFCDBF1092E9008091F4
:101B1000E80083FFFBC168E0CE0145960E94D20B2E
:101B200082EF8093E8008D8987FF05C09091E800DF
:101B300090FFFCCF03C09EEF9093E800982F907623
:101B400009F0C6C09E894F89588D2F89F88C911154
:101B50000CC0803829F480919C028093F10002C06F
:101B60001092F1001092F10045C1913051F48111B1
:101B700041C14130510509F03DC180919C028D7FEA
:101B80000BC0933061F4811135C14130510509F02A
:101B900031C180919C02826080939C022BC1953060
:101BA00049F48091E80080FFFCCF822F8068809309
:101BB000E30020C1963009F05EC00B8D1C8D22E041
:101BC0001092E9001092980210929702F21232C01D
:101BD00010929602109295020E94450C99E0BE0167
:101BE0006F5F7F4FDB01E92F1D92EA95E9F799833B
:101BF000FA8291E09E8390EA98879AEF99872091E4
:101C0000970230919802275F3F4F3C832B838D834F
:101C10001092E90010929802109297021093960287
:101C20000093950249E050E080E00E94AB0B0E94D7
:101C3000450CE0C010939602009395020E94D81EB6
:101C4000DC0112960D911C9113970115110509F4F1
:101C5000BBC0D801ED91FC910480F581E02DBE015F
:101C60006B5E7F4FC8010995009709F0C7C0F80166
:101C700000851185EACF973009F445C1983021F4E9
:101C800081E08093F100B6C0993009F0B3C0837051
:101C900009F039C1E7E1F1E081E031E096E320812C
:101CA000211109C08EE78093EA001092EA008F8923
:101CB0008093A2029FC08093E9003093EB002191B2
:101CC0002093EC009093ED008F5F873041F7EACFCF
:101CD0008B8D9C8D1092E9001092980210929702C1
:101CE0009093960280939502898D811153C08E89BD
:101CF0009D89913A49F4813209F005C147E050E0ED
:101D000064E071E080E0BBC0913209F0FCC0833236
:101D100069F48F89988DA0E0B0E0809300019093E2
:101D20000101A0930201B093030164C0803269F401
:101D30008091E80082FFFCCF67E084E091E00E94A0
:101D4000D20B8BEF8093E80055C0823209F052C06D
:101D50008F8980930B01EEEFFFE7859194918B3F84
:101D60009C4D19F0E0E0F8E002C0EEEFFAE080915F
:101D7000040190910501A0910601B0910701803BFB
:101D80009440A105B10509F09EC080910B0180FF30
:101D900079C099C00E94D81EFC01028113810115EF
:101DA000110509F4B0C0D801ED91FC910190F081CA
:101DB000E02DBE016B5E7F4FC801099581111AC0ED
:101DC000F80100851185EBCFF1E0FF1609F44EC054
:101DD000F3E0FF1298C08F89882309F44AC082304B
:101DE00089F440E860E189E293E00E940F228823B1
:101DF00009F489C08EEF8093E80088C01816190690
:101E0000CCF381C0813029F440E86BE08DE193E0B0
:101E1000ECCF833009F077C00E94D81EDC01129607
:101E2000ED90FC9013978E010F5F1F4F6801E11436
:101E3000F10479F0D701ED91FC910680F781E02D56
:101E4000B801C7010995080F111DF701E084F1845D
:101E5000EECFD8011C92F60101900020E9F73197EE
:101E6000BF016C197D0940E0C601BFCF6BE073E094
:101E700002C067E073E0FB01449150E080E80E94FB
:101E8000AB0BB8CFEE3F2AE0F20751F08081918191
:101E90008737A7E79A0721F09093FF0A8093FE0AFD
:101EA00087E797E791838083809160008093990210
:101EB0009BE088E10FB6F894A895809360000FBE70
:101EC0009093600097CF808191818737974709F081
:101ED00091CFA89580916000886180936000809187
:101EE000990280936000EE3FBAE0FB0739F08091E1
:101EF000FE0A9091FF0A918380837CCF1092FF0AA3
:101F00001092FE0A77CF81E28093EB006C960FB6B9
:101F1000F894DEBF0FBECDBFDF91CF91FF91EF915F
:101F2000BF91AF919F918F917F916F915F914F91F1
:101F30003F912F911F910F91FF90EF90DF90CF90E5
:101F40000F900FBE0F901F9018956115710579F0D5
:101F5000FB0101900020E9F73197AF01461B570BB9
:101F6000DC01ED91FC910280F381E02D099480E089
:101F700090E008950C94A50F3FB7F89480919102DA
:101F800090919202A0919302B091940226B5A89BE1
:101F900005C02F3F19F00196A11DB11D3FBFBA2FFB
:101FA000A92F982F8827820F911DA11DB11DBC015B
:101FB000CD0142E0660F771F881F991F4A95D1F720
:101FC00008958F929F92AF92BF92CF92DF92EF923D
:101FD000FF926B017C010E94BC0F4B015C01C1149C
:101FE000D104E104F104F1F00E94BC0FDC01CB014B
:101FF00088199909AA09BB09883E9340A105B10532
:1020000070F321E0C21AD108E108F10888EE880EC9
:1020100083E0981EA11CB11CC114D104E104F10499
:1020200019F7DDCFFF90EF90DF90CF90BF90AF908A
:102030009F908F9008958F929F92AF92BF92CF9270
:10204000DF92EF92FF920F931F93CF93DF936C0178
:102050007B018A0180910B01882309F45CC0809187
:10206000A202882309F457C080919B0280FF05C01B
:102070008091E00082608093E000E801B12C8AEF5B
:10208000A82E93E0892E2AE3922E209711F4BB20EC
:10209000D9F10E94C71E81110AC0AA94AA20D9F1C1
:1020A00061E070E080E090E00E94E10FEECF282F29
:1020B00030E0C217D3070CF48C2F9FB7F8948092AE
:1020C000E9002091E80025FF1DC0282F30E0C21B49
:1020D000D30BF701815020F041914093F100FACFEA
:1020E000E20EF31EBB2019F09092E8000AC0809126
:1020F000E80085FD07C09092E800BB24B3942097C8
:1021000009F0B12C9FBFC1CF5D9884E680939A02FD
:102110001016110644F081E090E0F601938382836B
:1021200080E090E001C0C801DF91CF911F910F9135
:10213000FF90EF90DF90CF90BF90AF909F908F90E7
:1021400008951F920F920FB60F9211242F933F9371
:102150008F939F93AF93BF9380919D0290919E0226
:10216000A0919F02B091A0023091900223E0230F32
:102170002D3720F40196A11DB11D05C026E8230FBF
:102180000296A11DB11D2093900280939D02909311
:102190009E02A0939F02B093A00280919102909121
:1021A0009202A0919302B09194020196A11DB11DDB
:1021B0008093910290939202A0939302B093940221
:1021C000BF91AF919F918F913F912F910F900FBE33
:1021D0000F901F901895EF920F931F933AEFE32EF5
:1021E00000E010E00E94271F1F910F91EF900895CB
:1021F000EF920F931F933BEFE32E00E010E00E945D
:10220000271F1F910F91EF900895BC0180E090E08F
:102210000C94E10F8FB18095807F669B88601C9B3A
:1022200084600895FC01E40FF11DAF011E161F0626
:10223000C4F580389105ACF597FF02C080E090E0CE
:102240004138510514F040E850E0481BFB0177FD90
:10225000379633E0F595E7953A95E1F7F695FE2F39
:10226000EE27F795E795E80FF91FE155FD4F6770E9
:10227000772781E090E001C0880F6A95EAF7382F50
:10228000222341F0213069F4415058F08081832BA2
:102290008193FACF8095415020F0908198239193BB
:1022A000FACF089580389105B8F460347105A0F430
:1022B00090E121E061FD24E060FD220F62FD2295A6
:1022C000687F969FD0011124A80FA155BD4F8C9116
:1022D000822B40FF82278C930895CF938F3F19F470
:1022E00060EE71E03AC0C82F6DE00E94F52662E012
:1022F000690F6C3081F018F46B3051F004C06D3010
:1023000069F06E3071F08FEA96E00E947C140FC085
:1023100063EE71E008C065EE71E005C067EE71E044
:1023200002C069EE71E08FEA96E00E94BA0F8C2F2E
:102330006DE00E94F526813059F068F0823029F076
:10234000833081F46DEE71E008C06BEE71E005C082
:102350006FEE71E002C061EF71E08FEA96E0CF911D
:102360000C94BA0FCF9108950E9402290F931F93E6
:10237000CF93DF93EC0188819981009729F02A811E
:102380003B812617370788F48B016F5F7F4F0E94D0
:102390003C28009761F0998388831B830A832C81F2
:1023A0003D81232B11F4FC01108281E001C080E00B
:1023B000DF91CF911F910F910895CF93DF93EC019F
:1023C00088819981009711F00E94B32719821882A1
:1023D0001D821C821B821A82DF91CF910895EF9299
:1023E000FF920F931F93CF93DF93EC017B018A0140
:1023F000BA010E94B611811104C0CE010E94DD1104
:1024000007C01D830C83B701888199810E94172919
:10241000CE01DF91CF911F910F91FF90EF90089522
:10242000CF93DF93EC01FB018617970761F0608182
:1024300071816115710529F0448155810E94EF1168
:1024400002C00E94DD11CE01DF91CF910895FC0101
:10245000808191810C94B327AF92BF92CF92DF928B
:10246000EF92FF920F931F93CF93DF93C82FC62E47
:10247000842F6DE00E94F526A82E32E0F32EF90E8F
:10248000211103C026E0B22E02C094E0B92ED12C57
:102490000C2E000CDD0BEE24E39408EF13E020E09B
:1024A0004BE254E0B601CE010E94271FCB0DD11D97
:1024B000B601645F7F4F2A2D42EE53E0CE010E94A9
:1024C000F810EF2DF0E0EE0FFF1FE75EFE4F4081AA
:1024D0005181B6016B5F7F4F81E090E02AE0F212FC
:1024E00002C080E090E020E08C0F9D1FDF91CF9133
:1024F0001F910F91FF90EF90DF90CF90BF90AF9022
:102500000C94F8102F923F924F925F926F927F92AD
:102510008F929F92AF92BF92CF92DF92EF92FF92F3
:102520000F931F93CF93DF935C012A01702E8E2DA2
:10253000813031F0823051F480E8682E601A07C093
:10254000802F869590E4692E681A01C0612C122FA5
:10255000110F110F110F22242394210EC62CD12C00
:10256000EB01239602E0010FE12C272D43E050E020
:10257000B601CE010E94EC1E460184E0880E911C3B
:102580000AE0010F28EFF22EF70C2F2D4FEF5FEF2F
:10259000B401CE010E94EC1E03E0010FB6016F5F93
:1025A0007F4FEE24E3942EEF270D43E050E0CE0161
:1025B0000E94EC1E08E0010F2F2D40E050E0B40116
:1025C000CE010E94EC1E36E0F32EF10E4CEF342EBD
:1025D000370CE601229620E0432D61E070E0CE0149
:1025E0000E9412110F2D10E0EFE3EF1530F020E004
:1025F000432DB801CE010E9412110F5F1F4F882496
:102600008394912C7801013411051CF080E4E82EAC
:10261000F12C8E149F044CF440E0B401CE010E94D2
:102620005211FFEF8F1A9F0AEDCFC30DD11D2197D5
:1026300001E010E00E151F0541F040E0B801CE01A9
:102640000E9452110F5F1F4FF5CFEE24E39409E073
:1026500015E020E041E155E06FEF7FEFC6010E94F9
:10266000271F4601870C911C07EF14E020E04FEF75
:1026700054E06FEF7FEFC40108970E94271FC22D1F
:10268000D0E005EE14E020E04DEE54E0BE01C601BE
:102690000E94271FBE01615071090BE714E020E082
:1026A0004FEA54E0C4014A970E94271F86E0860D36
:1026B000F5018683878384E08087F2014481558118
:1026C00060817181C5010296DF91CF911F910F91B9
:1026D000FF90EF90DF90CF90BF90AF909F908F9042
:1026E0007F906F905F904F903F902F900C94DF0BF6
:1026F000CF93DF93D82FE62FF0E0EF58FB4FC49134
:10270000C0FF09C090E020E048E654E067E170E0D7
:1027100003960E94EB10C1FF0AC08D2F90E020E0CD
:1027200040E654E069E170E00A960E94EB10C2FFB7
:102730000AC08D2F90E020E040E654E063E270E0B4
:102740000A960E94EB10C3FF0AC08D2F90E020E094
:1027500048E654E06BE270E003960E94EB10C4FF81
:1027600009C020E040E654E063E270E08D2F90E085
:102770000E94EB10C5FF09C020E040E654E069E18B
:1027800070E08D2F90E00E94EB10C6FF0CC08D2FE3
:1027900090E020E048E654E061E270E00396DF91CB
:1027A000CF910C94EB10DF91CF910895EF920F939E
:1027B000CF93DF93E12C00E420E84CE350E060E0AD
:1027C00070E003960E94EC1E21E040E86DE370E0AB
:1027D00080E090E00E941211C0E0D0E041E06FE3A1
:1027E00070E0CE010E9452112296C038D105B1F797
:1027F000DF91CF910F91EF900895CF93DF93EC018C
:10280000FB01EF55FF4F808181110FC04F8D4F3F6E
:1028100029F020E06FE08BE30E942C124E8D4F3F99
:10282000B1F020E061E180E30EC04E8D4F3F29F012
:1028300020E061E180E30E942C124F8D4F3F39F080
:1028400020E06FE08BE3DF91CF910C942C12DF91AD
:10285000CF9108958F929F92AF92BF92CF92DF92C5
:10286000EF92FF920F931F93CF93DF934C017B0165
:10287000FB01D089DC3010F4CFEF01C0CEEF57015F
:10288000F2E1AF0EB11C00E010E0CD2ED12C81E0C2
:10289000C81AD108802F0D1710F5F50141915F017D
:1028A000F401948D0C151D0524F0F70120892D30BD
:1028B00031F4891310C065E221E08C2F06C00913A2
:1028C0000CC065E220E081E08C0F0E942C120F5FAB
:1028D0001F4FC65FDFCF69E2EFCF69E2F3CFDF9131
:1028E000CF911F910F91FF90EF90DF90CF90BF900D
:1028F000AF909F908F9008958F929F92AF92BF92CA
:10290000EF92FF920F931F93CF93DF93CDB7DEB774
:10291000A1970FB6F894DEBF0FBECDBF7C01262F66
:1029200030E040E050E019A28E010F5D1F4F8AE0B9
:10293000882E912CA12CB12CCA01B901A5019401BA
:102940000E94C426605DF80162938F012115310554
:102950004105510589F7BF01C7010E94A50FA19646
:102960000FB6F894DEBF0FBECDBFDF91CF911F91A0
:102970000F91FF90EF90BF90AF909F908F90089530
:10298000CF92DF92EF920F931F93CF93DF9300D0FC
:102990001F92CDB7DEB79B838A836B01FB018681D3
:1029A0008F718983EA81FB8182A1843019F1EE2441
:1029B000E39408E022E240E050E060E070E0C6010D
:1029C00003960E94EC1E81E0EA81FB818683878367
:1029D000108663EF71E0CF0102960E94BA0FEA8180
:1029E000FB8122A142EE53E061E070E08BE190E0D8
:1029F0000E94F810EA81FB81808D882321F087896D
:102A0000823009F464C0EE24E39408E022E240E05E
:102A100050E06DE570E0C60103960E94EC1EEA816D
:102A2000FB8184858F010E5F1F4F893079F4F98116
:102A3000F13160F0EA81FB8181A1882339F09BE6C6
:102A4000968397831086815081A314C083E6EA8120
:102A5000FB81868387831086F60185AD8A3028F452
:102A60006AEF71E0C8010E94BA0FF60165ADC801B6
:102A70000E947C146CEF71E0C8010E94BA0FEA81D9
:102A8000FB818485893059F4F981F13140F0EA8184
:102A9000FB8180A1882319F0815080A318C0F60122
:102AA00086858A3028F46AEF71E0C8010E94BA0F67
:102AB000F6016685C8010F900F900F90DF91CF91BE
:102AC0001F910F91EF90DF90CF900C947C140F909A
:102AD0000F900F90DF91CF911F910F91EF90DF90AA
:102AE000CF900895EF920F931F93FC0180898C3053
:102AF00010F48FEF01C08EEF082E000C990BFAE056
:102B00006F9F800D911D1124EE24E39404EA13E0DD
:102B100020E042EC53E063E370E001960E94271F3F
:102B20001F910F91EF900895AF92BF92CF92DF92D5
:102B3000EF920F93CF93DF93EC018AA19B012D5F5E
:102B40003F4F59019E012E5F3F4F69018430E9F0EC
:102B5000EE24E39408E022E240E050E060E070E020
:102B6000C5010E94EC1E81E08E838F83188663EF7F
:102B700071E0C6010E94BA0F2AA142EE53E061E063
:102B800070E08BE190E00E94F810EE24E39408E0FE
:102B900022E240E050E06DE570E0C5010E94EC1ECD
:102BA00080E68E838F831886898D8A3028F46AEFB9
:102BB00071E0C6010E94BA0F698DC6010E947C14A3
:102BC00060E072E0C601DF91CF910F91EF90DF904E
:102BD000CF90BF90AF900C94BA0FCF93DF938F3FFD
:102BE000B9F16DE00E94F526D82FC2E0C90F20E0B0
:102BF0004AE853E06DE070E080E090E00E94EB1066
:102C000020E04BE254E06DE070E087E090E00E944D
:102C1000EB102D2F42EE53E069E170E08DE090E083
:102C20000E94F810EC2FF0E0EE0FFF1FE75EFE4F62
:102C30004081518181E090E0CA3011F480E090E061
:102C400020E062E170E00D96DF91CF910C94F810D6
:102C5000DF91CF910895CF92DF92EF92FF920F9381
:102C60001F93CF93DF93EC01FC01319680E08193B9
:102C70008F5F8433E1F78E010B5C1F4F84E3C82E16
:102C8000D12CE12CF12C0E94DE25A70196010E9497
:102C90005B26FE01E60FF11D8181D8019E918D0119
:102CA00091838C93B1E0CB1AD108E108F108E1E0FF
:102CB000CE16D104E104F10431F71882DF91CF91EF
:102CC0001F910F91FF90EF90DF90CF900895EF92BA
:102CD000FF920F931F93CF93DF93EC01F42E122FEB
:102CE0000D960E941012FB8A1C8B0E8BEF8A81E0DE
:102CF000888FDF91CF911F910F91FF90EF900895F2
:102D0000FC019B01868DADE06A2F0E94F526582FAD
:102D1000492F878D0E94F526851306C09E5F4E5F62
:102D200081E0941780F40CC092A1951749F0981790
:102D300049F0F901EF55FF4F81E09081992319F097
:102D400080E0089581E00895FC01DB0119969C91D3
:102D50001997909518962C91922393FD428F089580
:102D6000CF93DF93BC018FEA96E00E94A50FEC01A0
:102D700067E072E08FEA96E00E94A50F8C0F9D1F1E
:102D8000DF91CF9108954F925F927F928F929F92A1
:102D9000AF92BF92CF92DF92EF92FF920F931F9369
:102DA000CF93DF93FC01162FA280842F6DE00E9449
:102DB000F526982E2F0164E0460E511CA0E05DE040
:102DC0007F01E10EF11C7BE2E70EF11CAA1609F46B
:102DD00052C0E201B9912E018B2F652F0E94F5267A
:102DE000882E22E0290F2E3019F420E1290F21C06E
:102DF00033E0390F3F30E1F073806F01D1E1CD0E48
:102E0000D11C00E0B12C701679F0E60189916E01B9
:102E1000652F0E94F5269E5F391304C0881202C0F8
:102E2000BB24B3940F5FEFCFBB2019F03F5FE2CF1D
:102E30002EE04F3F59F0191109C08B2F652F0E94CA
:102E4000F526181303C02530A0F02450E70188812F
:102E500081110BC08B2F652F0E94F526BF01680FD3
:102E6000711DEB018BA5811120E0E201298FAF5F7D
:102E7000ADCF20E0EBCFDF91CF911F910F91FF906D
:102E8000EF90DF90CF90BF90AF909F908F907F900A
:102E90005F904F900895CF93DF93FC01DB0119966B
:102EA0008C911997809518969C911897892316965E
:102EB0002D913C91179727703327232B71F495851B
:102EC0009F5F9C3111F0958701C0158695859A30DA
:102ED00021F49685923009F4168685FF04C0968504
:102EE000913009F4168686FF05C09685911102C0BF
:102EF00091E0968783FF0EC08685811105C082E030
:102F0000ED01CD55DF4F88838685813019F4AD55AD
:102F1000BF4F8C93DF91CF91089522E0FC0126876B
:102F20000895089580E090E0089508950F931F9309
:102F3000CF93DF93EC018B01198218821B821A82D6
:102F40001D821C820E941012F80186818E83878167
:102F50008F83808588878185898782858A87838515
:102F60008B87DF91CF911F910F910895CF93DF93BE
:102F7000FC016A3039F48581848396818185890FCB
:102F8000868351C08481603219F48E5F84834BC084
:102F90006E37D9F3262FEF0166816F5F2A3331F147
:102FA00078F42D32C9F130F4213211F12B3271F560
:102FB00021E41FC02E32A1F0203340F12C5F19C054
:102FC0002B3540F4213470F42F3371F02034F1F4B8
:102FD00024E40FC09FE9920F9A31C0F4275409C02E
:102FE0002FE307C0215405C022E403C023E401C03D
:102FF0002EE33F81062E000C770B082E000C990B58
:10300000313061F44BE155E00E94EB1088858D5F13
:103010009C81890F8C8307C020E4EBCF4BE155E006
:103020000E94F810F3CF81E090E0DF91CF910895F6
:103030000C94B3270C94B3270C94B3270C94B327A8
:10304000EF92FF920F931F93CF937C01C62F6AE0FC
:1030500072E08FEA96E00E94BA0F6C2F8FEA96E03A
:103060000E947C146DED71E08FEA96E00E94BA0F29
:10307000C0E0F7018281C81708F561E372E08FEACA
:1030800096E00E94BA0F87010C0F111DF8016481B0
:103090008FEA96E00E947C1462E172E08FEA96E08B
:1030A0000E94BA0FF80184810E946D1163E172E001
:1030B0008FEA96E00E94BA0FCF5FDBCF89E092E003
:1030C000CF911F910F91FF90EF900C94B0161F932A
:1030D000CF93DF93EC01162F1A821B8218824DE0EA
:1030E00050E06FEF70E004960E9410294DE050E030
:1030F0006FEF70E0CE0141960E9410294DE050E044
:103100006FEF70E0CE014E960E941029FE01BB9633
:1031100084E0DF011D928A95E9F711111982DF9190
:10312000CF911F910895AF92BF92CF92DF92EF920D
:10313000FF920F931F93CF93DF938C01EB016B01F1
:103140008EE0C80ED11C7B01EDE3EE0EF11C5B019D
:10315000FCE6AF0EB11CC5010E942B1660E0C60153
:103160000E94671860E0C7010E946718C5010E94AD
:103170002B1661E0C6010E94671861E0C7010E943A
:103180006718F801148681E083A3818FCF55DF4F44
:103190008883DF91CF911F910F91FF90EF90DF9087
:1031A000CF90BF90AF900895FC01DC01A60FB11D38
:1031B00014968C916C3050F4DF01A60FB11D15965A
:1031C0009C91159714969C936F5FF4CF9FEF908B13
:1031D0009281915092830895FC019281DF01A90FA1
:1031E000B11D14966C9361E0690F6283CF01049660
:1031F0000C94B221FC01349690E08191861729F05D
:103200009F5F9D30D1F78FEF0895892F089508951E
:103210000895089508956F927F928F929F92AF9232
:10322000BF92CF92DF92EF920F931F93CF93DF93D2
:10323000CDB7DEB72C970FB6F894DEBF0FBECDBF6B
:103240006C015B01DC011C96EC918E2F90E08B30C1
:10325000910508F085C1FC01E559FF4F8601035F28
:103260001F4F0C941527B801CE0101960E949617A6
:103270009E012F5F3F4FF6014689A1C0B801CE01E4
:1032800001960E9496179E012F5F3F4FD6015696DA
:103290004C9168E5C5010E948920CE0101960E94EB
:1032A0002712B501C6010E942A14C5010E94D61337
:1032B00057C1F601828D8C3018F4C6010E94941516
:1032C000B801CE0101960E9496179E012F5F3F4FD5
:1032D000D60156964C9168E5C5010E948920CE0121
:1032E00001960E942712B501C6010E942A14C50149
:1032F0000E94D613F601858D0E94ED1531C1C601DD
:103300000E949415B801CE0101960E9496179E0165
:103310002F5F3F4FD60156964C9168E5C5010E943C
:103320008920CE0101960E942712B501C6010E9494
:103330002A14C5010E94D613F601858D0E94ED1551
:10334000D6011C968C911C97833009F080C05B9647
:103350006C91C5010E9472157AC0F601828D82358A
:1033600018F4C6010E949415B801CE0101960E947E
:1033700096179E012F5F3F4FD60156964C9168E5F8
:10338000C5010E948920CE0101960E942712B50135
:10339000C6010E942A14C5010E94D613F601828D2F
:1033A000823508F0DDC053C0B801CE0101960E94FD
:1033B00096179E012F5F3F4FD60156964C9168E5B8
:1033C000C5010E948920CE0101960E9427126DCF6F
:1033D000C6010E94C014B801CE0101960E94961742
:1033E0009E012F5F3F4FF601468968E5C5010E94A7
:1033F0008920CE0101960E942712B501C6010E94C4
:103400002A14C5010E94D613D6011C968C911C97D4
:103410008730E9F49CCFC6010E94C014B801CE01E8
:1034200001960E9496179E012F5F3F4FF601468935
:1034300068E5C5010E948920CE0101960E942712ED
:10344000B501C6010E942A14C5010E94D613B50118
:10345000C6010E94FD1384C0B801CE0101960E94EE
:1034600096179E012F5F3F4FD60156964C9168E507
:10347000C5010E948920CE0101960E942712C50134
:103480000E94D613EE24E39407E020E24CE050E0E3
:1034900068E070E03501B3E06B0E711CC3010E945F
:1034A000EC1E85E1F601868387831CE0108765E1C9
:1034B00072E04601F2E08F0E911CC4010E94BA0F27
:1034C00020E24CE050E06CE270E0C3010E94EC1E90
:1034D00086E3D60116968C93169717968C931797BA
:1034E00018961C9368E172E0C4010E94BA0FF501BE
:1034F00086AD1AE0612F0E94F526682F8AE00E94AF
:103500007813D501DE968C91612F0E94F526692FE4
:1035100089E10E94781320E04AE256E06FE170E012
:1035200089E290E00E94EB1020E04AE256E064E27B
:1035300070E089E290E00E94EB10F5018785612F31
:103540000E94F526682F8EE20E947813D5011F96FF
:103550008C91612F0E94F526692F8DE30E947813CC
:10356000F601808D8823F9F0E788048913891A828F
:1035700019821C821B821E821D82B601635F7F4FEF
:10358000CE0101960E941012212FAE014F5F5F4FB6
:10359000B501C6010E948212CE0101960E94271237
:1035A000D60158961C922C960FB6F894DEBF0FBE2B
:1035B000CDBFDF91CF911F910F91EF90DF90CF9012
:1035C000BF90AF909F908F907F906F900895AF9233
:1035D000BF92CF92DF92EF920F931F93CF93DF931F
:1035E000CDB7DEB768970FB6F894DEBF0FBECDBF7C
:1035F0005C016B011E861D86188A1F861A8A198A2D
:1036000040E050E069E072E0CE010D960E94EF11BB
:103610001E8A83E08F8B188EF5018685823090F4A8
:10362000882319F088E290E002C089E090E0EE245F
:10363000E3940CEE15E020E04AE056E06FE170E024
:103640000E94271FF5018685882321F0813021F40F
:1036500012E003C011E001C010E0BE01635F7F4FC4
:10366000CE0101960E9496179E012F5F3F4F412F7A
:103670006EE4C6010E948920CE0101960E942712A5
:10368000E12C0FE320E84CE350E060E070E0C6017D
:1036900003960E94EC1E21E040E86DE370E080E0BC
:1036A00090E00E94121100E010E041E06FE370E052
:1036B000C8010E9452110E5F1F4F00381105A9F773
:1036C000CE010D960E94271268960FB6F894DEBFC1
:1036D0000FBECDBFDF91CF911F910F91EF90DF9083
:1036E000CF90BF90AF9008952DE531E0FC0131837C
:1036F00020830D960C942712CF93DF93EC010E9448
:10370000741BCE01DF91CF910C94B32727EB31E0EE
:10371000FC013183208382549F4F0C94741BCF9300
:10372000DF93EC010E94861BCE01DF91CF910C94B8
:10373000B327FC013281582FFC018FEF20E09E2F30
:10374000951B931758F4968D961730F0491720F073
:10375000921710F08481292F3196F1CF0895CF93DD
:10376000DF93682F8FEA96E00E947C14EC0167E0FB
:1037700072E08FEA96E00E94A50F8C0F9D1FDF91EB
:10378000CF910895CF92DF92EF92FF920F931F9304
:10379000CF93DF938C01D62E842F4F3F09F4BFC007
:1037A0006DE00E94F526C82E42E0490FF801B28173
:1037B0007801F4E0EF0EF11CF70150E0DFEFCFEFFE
:1037C000ADE0B51759F13191832F6A2F0E94F5268C
:1037D00022E0290F241718F4C8121EC005C0421792
:1037E000D8F4C81219C00DC0CF3F09F4A7C08C2F60
:1037F0006A2F0E94F5269E5F291708F49FC0421782
:1038000058F4DF3F09F496C08D2F6A2F0E94F526E9
:103810009E5F291708F48EC05F5FD3CF6CE172E022
:103820008FEA96E00E94BA0F6C2F8FEA96E00E9412
:103830007C1462E172E08FEA96E00E94BA0F8C2F4E
:103840000E946D1166E272E08FEA96E00E94BA0F64
:103850006D2F8FEA96E00E947C1462E172E08FEA9D
:1038600096E00E94BA0F8D2F0E946D1189E092E0C0
:103870000E94B016DF3F09F044C0CF3F09F04DC0B1
:10388000D80112965C91DC14E1F020E0EDE05217D3
:10389000B1F0D7013D917D01832F6E2F0E94F52657
:1038A000D8120BC0CF3F41F042E0490F8C2F0E944D
:1038B000F5269E5F941708F4C32F2F5FE8CFCF3F04
:1038C00029F4402FF801CFEF3DE012C083E392E0EE
:1038D00015C0CF3F89F18C2F632F0E94F52622E07F
:1038E000290F84810E94F5269E5F921728F1319658
:1038F0008E2F841B851768F388E892E00E94B0162B
:103900000CC08D2F1DC0968D981710F0C481892F83
:1039100031969E2F921B9317B0F38C2F11C04FEF4F
:10392000C8010E94C316F8013281202FF80180E0FF
:10393000CFEFEFCFD32F70CFC481D9CFC32F5FCFBD
:10394000DF91CF911F910F91FF90EF90DF90CF907B
:103950000895CF93DF93DC01FB015F968C915F9715
:103960008F3F31F16DE00E94F526382F4089EF013D
:10397000629620E05DE0241741F08991652F0E9456
:10398000F526381721F02F5FF6CF90E001C091E0C7
:103990005B968C91E80FF11D8289992349F06DE0C7
:1039A0000E94F526982F81E0931719F080E001C05E
:1039B00081E0DF91CF910895AF92BF92CF92DF92D5
:1039C000EF92FF920F931F93CF93DF938C01A62E5C
:1039D000F42EC22F3DE0842F632F0E94F526482F3E
:1039E00022E0290FCF3F41F08C2F0E94F52632E0D4
:1039F000B32EB90EE82E04C083E0E82EBB24BA949F
:103A0000A41202C0D6E001C0D0E0D20FD8011396B4
:103A10005C91F801719630E0ADE0531761F081914F
:103A20006A2F0E94F5269E5F291718F4481709F49B
:103A300049C13F5FF2CF6CE372E08FEA96E00E94EB
:103A4000BA0F8D2F0E94AF1BCF3F69F0F801A28102
:103A50006801F4E0CF0ED11CF60140E0FF24FA9497
:103A6000CFEF5DE0A8C085E492E00E94B0164F2D34
:103A70006A2DC8010E94C31668E472E08FEA96E0DE
:103A80000E94BA0FC0E0D80112968C91C81780F43A
:103A9000F801EC0FF11D668D8FEA96E00E947C1410
:103AA00063E172E08FEA96E00E94BA0FCF5FEBCF3E
:103AB00083E192E00E94B016D83020F0DE3008F0AA
:103AC0005AC016C08FE492E00E94B016F80122811D
:103AD000302FF801CFEF8FEF9E2F931B921708F036
:103AE000EFC0968D891710F0C481892F3196F4CFDD
:103AF00082E592E00E94B01649E064E0C8010E94AD
:103B0000991BC82F65E572E08FEA96E00E94BA0F14
:103B10008C2F0E94AF1BCF3F31F444E060E0C8011E
:103B20000E94991BC82F6AE572E08FEA96E00E9416
:103B3000BA0F8C2F0E94AF1BCF3F99F4D801129679
:103B40002C91302FF8019FEF8E2F831B821748F4A2
:103B5000868D893020F0981710F0C481982F319607
:103B6000F3CF6FE572E08FEA96E00E94BA0F8C2FD8
:103B70000E94AF1BA5C084E692E00E94B0164FEFF2
:103B800060E0C801DF91CF911F910F91FF90EF90FE
:103B9000DF90CF90BF90AF900C94991B3191832F01
:103BA000652F0E94F52622E0290F2B1538F4E81620
:103BB00009F48AC04F5FA413F1CF05C0B216D0F745
:103BC000E812F8CF8EC067E672E08FEA96E00E94B6
:103BD000BA0F8C2F0E946D1160E772E08FEA96E0B9
:103BE0000E94BA0F8F2D0E946D1189E092E00E9411
:103BF000B016D13120F0BFEFFB125DC05EC0D730F0
:103C000070F0DF3020F0EFEFFE1255C056C0D93013
:103C100030F0DD3020F0FFEFFF124DC04EC0CF3F3F
:103C200009F04EC08FEFF81246C0D80112965C9191
:103C3000AE1431F0D83020F020E0CFEFEDE00FC02F
:103C4000402FF801CFEF3DE02DC0D6013D916D0131
:103C5000832F6E2F0E94F526A81621F02F5F521396
:103C6000F4CF0CC0CF3F41F042E0490F8C2F0E94AF
:103C7000F5269E5F491790F7C32FF0CFCF3F01F392
:103C80008CE792E015C0CF3FC9F18C2F632F0E94C3
:103C9000F52622E0290F84810E94F5269E5F921767
:103CA00068F131968E2F841B851768F385E892E0C2
:103CB0000E94B01605C08F2D23C0CF3F09F4B5CFA9
:103CC0008C2F1EC0DF5FB5CECF3F39F08C2F652F14
:103CD0000E94F5269E5F291708F4C32FB21608F03C
:103CE00069CFBFEFFB1641F08F2D652F0E94F5269F
:103CF0009E5F291708F05ECFF32E5CCFC481D1CF31
:103D0000DF91CF911F910F91FF90EF90DF90CF90B7
:103D1000BF90AF900895EF920F931F9322E0E22E91
:103D200000E010E020E00E94271F1F910F91EF900C
:103D300008952091A202211103C08FEF9FEF0895F3
:103D40005FB7F89422E02093E9002091F20030E080
:103D50001216130614F421E030E0422FFC0184E631
:103D6000415038F028988093A1029091F1009193EE
:103D7000F7CF2115310521F08091F200882319F049
:103D80005FBFC90108958BE68093E800F9CF2FB794
:103D9000F89483E08093E9009091E800892F807285
:103DA00095FF04C09091F20080E4891B2FBF089515
:103DB0008091A70281110DC082E08093A30284E06C
:103DC0008093A4021092A6021092A50281E0809333
:103DD000A70283EA92E008958F929F92AF92BF92DA
:103DE000CF92DF92EF920F931F93CF93DF936A01ED
:103DF000EB014B01820E911C5A01A00EB11CC8159B
:103E0000D905CCF48601D7FE02C000E010E0C50160
:103E100021E4A216B10414F080E490E00817190719
:103E200044F44E2DB801CE010E9452110F5F1F4F76
:103E3000EECF2196E4CFDF91CF911F910F91EF90BC
:103E4000DF90CF90BF90AF909F908F9008952F926A
:103E50003F924F925F926F927F928F929F92AF921A
:103E6000BF92CF92DF92EF92FF920F931F93CF9367
:103E7000DF9300D000D000D0CDB7DEB7411551059B
:103E800009F42EC1FA01B4903196E4914E5F5F4F70
:103E9000CB2CD12C222301F1A1E0B0E03E2F3770D2
:103EA00011F4A0E0B0E03E2F369536953695A30F7D
:103EB000B11DAC9D4001AD9D900CBC9D900C11249A
:103EC000F3E0EF1202C0880C991C289DD001299DB7
:103ED000B00D11244A0F5B1F2FEFE21208C001152D
:103EE000110519F0EE24E39402C032E0E32EC80E6F
:103EF000D91E1C141D040CF0F3C0803891050CF081
:103F0000EFC09B012E0F311D121613060CF0E8C0F6
:103F1000603471050CF0E4C04115510509F4E0C0AE
:103F2000362F37703D83DB0177FD179623E0B5957B
:103F3000A7952A95E1F73A2F77FF05C06D81662393
:103F400011F03FEF3A0F97FF05C0AA27BB27A81B28
:103F5000B90B02C0A0E0B0E0F0E8CF16D10424F025
:103F600020E8F22EF81A01C0FB2CFA1A632F032E58
:103F7000000C770B3F3F1CF4A62EA09401C0A12C8F
:103F8000F1E02E2F277009F4F0E0E695E695E6952E
:103F9000FE0F6F0F711D6930710514F0F8E0F31B0F
:103FA0007A2C730E272D60E82603800D911D1124B5
:103FB0004C018A0E9B1E61E070E00D8002C0660F0E
:103FC000771F0A94E2F783E0E81611F0E1E001C000
:103FD000E2E02B2D2F192E9F202D1124CE2ED12C37
:103FE000BA9CA00DB11D1124AC9DC001AD9D900DDA
:103FF000BC9D900D11245A01A80EB91E0115110582
:1040000009F0A801D60111978A0F9B1F480F591F6D
:10401000AFEFA69FC001A79F900D11242C014094E3
:104020005094C40181559D4FF30FFE8330E0EF9D06
:10403000200D311D1124EE817E1609F451C0DC01E2
:104040004A018501612CF61409F442C0F80134904C
:10405000369EF001379EF00D1124FA83E983E09536
:10406000F095FC83EB83F2E0EF1203C05C824B829D
:1040700011C0EBEFEE1203C01A8219820BC0F401DB
:104080003490369EF001379EF00D1124E095F095A6
:10409000FC83EB8377FC06C0FB81EC91EF23F98175
:1040A000EF2BEC93FD81FF2361F0E6E0E7154CF088
:1040B000FD01E058FF4F20803C8032202A803228CA
:1040C00030828C0C9D1C0C0D1D1D63941196BBCF72
:1040D0007394A20EB31E420F531F80589F4FABCF55
:1040E00026960FB6F894DEBF0FBECDBFDF91CF91FD
:1040F0001F910F91FF90EF90DF90CF90BF90AF9006
:104100009F908F907F906F905F904F903F902F90F7
:1041100008958F929F92AF92BF92CF92DF92EF92CB
:10412000FF920F931F93CF93DF936C01F42E4901FD
:10413000FC01A680B780C62F660FDD0BEE24E3944A
:1041400004EA16E020E042EB57E06CE070E0CE01BC
:104150000E94271FC5018F77992721E0843008F03E
:1041600020E048E756E06DE170E0CE010C960E9439
:10417000EB10F40183856196882361F0C50160E34B
:1041800070E00E9401276CE00E94F52681118E5F8D
:10419000282F01C02F2D4EE256E067E270E0CE01DD
:1041A0000E94EB10EE24E3940BE320E847E350E099
:1041B00060E070E0C60103960E94EC1EDF91CF9193
:1041C0001F910F91FF90EF90DF90CF90BF90AF9035
:1041D0009F908F900895FC01DB0118968C911897A1
:1041E00019969C919095982384FF14C024852031C2
:1041F00018F42F5F24870FC0F89487E78093000896
:1042000080930108A89588E18093600088E08093FE
:104210006000FFCF148693FF05C0FB01ED55FF4FF3
:1042200082E0808308950895FC01DB0119968C914A
:104230001997809518969C91892399F084858823F5
:1042400011F08CE78487948591110EC081E08487FA
:1042500080E48093900081E49FE0909399008093A4
:10426000980094859923C1F09F5F9487953059F009
:104270009D3761F0923081F480E596E49093990047
:10428000809398000895109290000895FB01ED55D9
:10429000FF4F81E080830895089547E959E06AE07F
:1042A00070E083E190E00C948B1E0F931F93CF93EB
:1042B000DF93EC0141E759E061E170E08FE290E0CB
:1042C0000E948B1E43E559E06AE170E08BE290E0CA
:1042D0000E948B1E43E559E06AE170E089E490E0BA
:1042E0000E948B1E8C85811114C043E559E06AE160
:1042F00070E08AE390E00E948B1E43E059E06EE29A
:1043000070E08AE190E0DF91CF911F910F910C94C2
:104310008B1E45EE58E06AE170E08AE390E00E946F
:104320008B1E42EC58E06EE270E08CE290E00E945E
:104330008B1E8C856FE00E94F526082F0370CFE45A
:10434000D0E010E0011749F041E061E370E0CE01F8
:104350000E9452111F5F2296F5CFDF91CF911F91DE
:104360000F9108956F927F929F92AF92BF92CF92DA
:10437000DF92EF92FF920F931F93CF93DF93EC01A5
:10438000D12C462F50E07A0161E0E61AF1088DE069
:10439000B82E34E18D2D90E08E159F0594F5C12C3B
:1043A000DA01A81BB90B3D0181E0681A7108EC2DF8
:1043B000F0E0E615F7051CF58E010E0F1F1FD80162
:1043C000AC903196EC0FFD1F9080892D6B2D0E94D3
:1043D000F526232F389F200D11249E5F290F8A2D4B
:1043E0000E94F526B32F389FB00D11249E5F9B0FBE
:1043F000291718F4D8019C92A082C394D8CFD394E3
:10440000C9CFDF91CF911F910F91FF90EF90DF9077
:10441000CF90BF90AF909F907F906F900895DF9264
:10442000EF92FF920F931F93CF93DF93D82EF92E25
:10443000E42E062F10E0C8010196880F0E947D0B24
:1044400083E00E947D0BCD2DDF2D0C0F1D1FC017AB
:10445000D10789F0E7FE03C0FE01849101C0888185
:104460000E947D0BF82E80E00E947D0B8F2121960B
:104470008111EDCF01C081E0DF91CF911F910F91AC
:10448000FF90EF90DF900895789484B5826084BDAA
:1044900084B5816084BD85B5826085BD85B5816048
:1044A00085BD80916E00816080936E0010928100C6
:1044B0008091810082608093810080918100816081
:1044C0008093810080918000816080938000809142
:1044D000910082608093910080919100816080932F
:1044E0009100809190008160809390008091C10044
:1044F00084608093C1008091C10082608093C1007C
:104500008091C10081608093C1008091C30081606F
:104510008093C3008091C00082608093C00080912E
:10452000C20081608093C20080917A008460809391
:104530007A0080917A00826080937A0080917A007C
:10454000816080937A0080917A00806880937A00FD
:104550001092A20210929C0210929B028091D700AE
:1045600081608093D70080EA8093D80089B580610C
:1045700089BD89B5826089BD09B400FEFDCF61E0C7
:1045800070E080E090E00E94E10F8091D8008F7C85
:1045900080618093D8008091E000807F8093E0006C
:1045A0008091E1008E7E8093E1008DE08093E200B7
:1045B000559A209A81EC80937C0085B1806F85B9F3
:1045C00084B1877E84B984B1876E84B95E9A5F981E
:1045D0008AB1806D8AB9769A6E9881B3806F81BBFB
:1045E000899880B38D7080BB80E58CBD81E08DBDE6
:1045F00085E090E00E9405115F9A85E090E00E94BE
:1046000005115E985C98EAE3F3E084918EBD0000AA
:104610000DB407FEFDCF319683E0E734F807A9F724
:104620005C9A81E88093640080916500816080934A
:1046300065000E940A1187FF24C05C9885EA8EBD40
:1046400000000DB407FEFDCF5C9A2E982F982D9890
:104650008091640080628093640081E083BF8895CC
:1046600013BEFCCF2D980E940A118478843871F013
:104670000E940A118471843129F188EC90E00E9433
:1046800005110E940A1182FDEDCF38C02D9A88ECE9
:1046900090E00E9405112F9882E090E00E9445264C
:1046A0008F3F29F06FEF82E090E00E944D2684EF6B
:1046B00091E00E9405112F9A0E940A118478843893
:1046C000D9F3D6CF2D9A88EC90E00E9405112E9850
:1046D00082E090E00E944526882329F060E082E095
:1046E00090E00E944D2684EF91E00E9405112E9AE1
:1046F0000E940A1184718431D9F3BFCF2D9A82E0D0
:1047000090E00E944526882319F03E9A3F9A02C005
:104710003E983F9880E180930907809164008E7FE6
:104720008093640080917A00806480937A00809105
:104730007A0086FDFCCFC0917800D09179000E946C
:10474000BC0F8E0120E030E0980111270027600F98
:10475000711F821F931F20916400216020936400C9
:10476000611571058105910511F00E942C261092AA
:10477000A207DD24D3940FEA12E0D0E080E0E82E17
:1047800080E0F82ECC24C39492E0B92E8FB7F89431
:1047900040919D0250919E0260919F027091A002F3
:1047A0008FBF80910A07942F981B892FC0910B0708
:1047B000CC2329F090930C0710920B07A1C0909185
:1047C0000907891740F48F5F891708F099C0D3BE95
:1047D000889513BE95C0C0920B0740930A0780913D
:1047E00005079091060701969093060780930507A9
:1047F00080910707809308070E940A11809307079A
:104800008C2FF80181118FEF002481938193819384
:1048100081930394D1F78091A2078130E1F030F0C9
:10482000823071F1833009F448C05DC08091A107E6
:10483000882321F0109201071092A1076FEF76E014
:1048400080EB97E00E9414216FEF76E080EB97E019
:104850000E94552148C09091A107913021F080938A
:1048600001078093A1076FEF76E083EA97E00E944B
:10487000EB206FEF76E083EA97E00E944D2133C092
:104880009091A107923061F0809301076FEF76E07D
:104890008DEB97E00E9493188091A2078093A10767
:1048A0006FEF76E08DEB97E00E9404066FEF76E005
:1048B0008DEB97E00E940B1916C09091A1079330E1
:1048C00031F080930107B092EF078093A1076FEF5B
:1048D00076E081EE97E00E944B176FEF76E081EE75
:1048E00097E00E94E71AF80180E098E000800EBC93
:1048F000D111012C019780FDFDCF0192B9F70DB4C4
:10490000E114F10409F442CF0E9400003FCF8FEF81
:1049100096E00C94861BFF920F931F93CF93DF9327
:104920001092B2061092B10688EE93E0A0E0B0E0DB
:104930008093B3069093B406A093B506B093B606E1
:104940008BE391E09093B0068093AF068FEF9FEFDB
:104950009093BC068093BB0610920707109208073D
:1049600080E18093090710920607109205071092C4
:104970000B0789EA91E09093030780930207109256
:104980000F0710921007E1E1F7E08FEF8193848722
:1049900097E0EE31F907D1F710923E0710923F07EA
:1049A000E0E4F7E08FEFFF24FA948193848797E0A7
:1049B000ED34F907C1F7C1E0C093A00787EB91E0A0
:1049C000909300078093FF061092A8071092A70704
:1049D0000DE711E01093A6070093A507D8E0D09348
:1049E000AE07C093AD071092AA071092AB071092C2
:1049F000A9071092AC0789E991E09093A4078093EE
:104A0000A3071092AF071092B5071092B407109346
:104A1000B3070093B207D093BB07C093BA071092B5
:104A2000B7071092B8071092B6071092B9078DE633
:104A300091E09093B1078093B0071092BC07109259
:104A4000C2071092C1071093C0070093BF07D0930D
:104A5000C807C093C7071092C4071092C5071092E9
:104A6000C3071092C6078DE591E09093BE0780932F
:104A7000BD071092C9071092CB071092CA07109277
:104A8000CD071092CC071092CF071092CE0740E0CE
:104A900050E069E072E08AEC97E00E94EF1110921A
:104AA000D30783E08093D4071092D5071092D607DE
:104AB0001092D7071092D807F092D907F092DA0730
:104AC000F092DB07F092DC071092DD071092DE0710
:104AD00084E08093DF07C093E0071092E60710920E
:104AE000E5071093E4070093E307D093EC07C09326
:104AF000EB071092E8071092E9071092E70710926F
:104B0000EA078DE491E09093E2078093E107109229
:104B1000ED071092EE071092EF07DF91CF911F91F2
:104B20000F91FF9008958F929F92AF92BF92CF9274
:104B3000DF92EF92FF92CF93DF93EC01688179814E
:104B40008A819B81611571058105910521F464E2DB
:104B500079ED8BE597E02DE133EF41E050E00E94E5
:104B60005B2649015A019B01AC01A7EAB1E40E940E
:104B70007A266B017C01ACEEB4EFA50194010E9492
:104B80008826DC01CB018C0D9D1DAE1DBF1DB7FF1E
:104B900003C00197A109B04888839983AA83BB8386
:104BA000BC01CD019F77DF91CF91FF90EF90DF9017
:104BB000CF90BF90AF909F908F9008958F929F92CB
:104BC000AF92BF92CF92DF92EF92FF9260910C0171
:104BD00070910D0180910E0190910F016115710589
:104BE0008105910521F464E279ED8BE597E02DE1F3
:104BF00033EF41E050E00E945B2649015A019B01DE
:104C0000AC01A7EAB1E40E947A266B017C01ACEE0C
:104C1000B4EFA50194010E948826DC01CB018C0D24
:104C20009D1DAE1DBF1DB7FF03C00197A109B04870
:104C300080930C0190930D01A0930E01B0930F018E
:104C4000BC01CD019F77FF90EF90DF90CF90BF9098
:104C5000AF909F908F90089560930C0170930D0119
:104C600080930E0190930F010895FB01DC010590E4
:104C70000D920020E1F70895FC0105900020E9F76E
:104C8000809590958E0F9F1F0895F999FECF92BD44
:104C900081BDF89A992780B50895262FF999FECFFE
:104CA0001FBA92BD81BD20BD0FB6F894FA9AF99A49
:104CB0000FBE01960895052E97FB1EF400940E94E6
:104CC000722657FD07D00E94C42607FC03D04EF47D
:104CD0000C94722650954095309521953F4F4F4F3B
:104CE0005F4F089590958095709561957F4F8F4F98
:104CF0009F4F08950E94E626A59F900DB49F900DAA
:104D0000A49F800D911D11240895B7FF0C947A265D
:104D10000E947A26821B930B08952F923F924F9206
:104D20005F926F927F928F929F92AF92BF92CF923B
:104D3000DF92EF92FF920F931F93CF93DF93CDB744
:104D4000DEB7CA1BDB0B0FB6F894DEBF0FBECDBFBC
:104D500009942A88398848885F846E847D848C848D
:104D60009B84AA84B984C884DF80EE80FD800C8196
:104D70001B81AA81B981CE0FD11D0FB6F894DEBF79
:104D80000FBECDBFED010895A1E21A2EAA1BBB1BD9
:104D9000FD010DC0AA1FBB1FEE1FFF1FA217B30707
:104DA000E407F50720F0A21BB30BE40BF50B661F1D
:104DB000771F881F991F1A9469F7609570958095E1
:104DC00090959B01AC01BD01CF010895A29FB00158
:104DD000B39FC001A39F700D811D1124911DB29F2F
:104DE000700D811D1124911D0895991B79E004C057
:104DF000991F961708F0961B881F7A95C9F780951A
:104E00000895AA1BBB1B51E107C0AA1FBB1FA61711
:104E1000B70710F0A61BB70B881F991F5A95A9F763
:104E200080959095BC01CD010895EE0FFF1F059070
:104E3000F491E02D09940F931F93CF93DF93823069
:104E4000910510F482E090E0E091F207F091F30711
:104E500020E030E0A0E0B0E0309719F140815181CE
:104E60000281138148175907C8F08417950769F420
:104E7000109731F012960C93129713961C9327C03B
:104E80000093F2071093F30722C02115310519F0A2
:104E90004217530718F49A01BD01EF01DF01F80131
:104EA000DBCF21153105F9F0281B390B24303105F2
:104EB00080F48A819B816115710521F0FB01938348
:104EC000828304C09093F3078093F207FE01329629
:104ED00044C0FE01E20FF31F8193919322503109E8
:104EE000398328833AC02091F0073091F107232BB2
:104EF00041F420911201309113013093F107209376
:104F0000F00720911001309111012115310541F474
:104F10002DB73EB74091140150911501241B350B5C
:104F2000E091F007F091F107E217F307A0F42E1BD0
:104F30003F0B2817390778F0AC014E5F5F4F2417FD
:104F4000350748F04E0F5F1F5093F1074093F0076D
:104F50008193919302C0E0E0F0E0CF01DF91CF9127
:104F60001F910F910895CF93DF93009709F481C0AB
:104F7000FC01329713821282A091F207B091F307DD
:104F8000109781F420813181820F931F2091F007C7
:104F90003091F1072817390751F5F093F107E093A5
:104FA000F00767C0ED0120E030E0CE17DF0740F4E6
:104FB0004A815B819E0141155105F1F0EA01F5CF6F
:104FC000D383C28340815181840F951FC817D907AD
:104FD00059F488819981840F951F0296918380836B
:104FE0008A819B81938382832115310529F4F09373
:104FF000F307E093F2073DC0E901FB83EA8349919F
:105000005991C40FD51FEC17FD0761F48081918180
:10501000840F951F0296E901998388838281938189
:105020009B838A83E0E0F0E012968D919C91139728
:10503000009719F0FD01DC01F7CF8D919C9111973C
:105040009D012E5F3F4F820F931F2091F0073091FB
:10505000F1072817390769F4309729F41092F307FC
:105060001092F20702C013821282B093F107A0934C
:10507000F007DF91CF910895A0E0B0E0E2E4F8E21C
:105080000C949126EC01009721F4CB010E941B2780
:10509000B4C0FC01E60FF71F9C0122503109E21752
:1050A000F30708F4A8C0D9010D911C9111970617B8
:1050B0001707B0F00530110508F49BC0C80104972C
:1050C0008617970708F495C002501109061B170BA5
:1050D000019311936D937C93CF010E94B32789C0F4
:1050E0005B01A01AB10A4C01800E911EA091F2073B
:1050F000B091F307612C712CE12CF12C109709F47D
:1051000046C08D919C911197A815B905B1F56C0118
:1051100042E0C40ED11CCA14DB0478F14C018A1899
:105120009B08640142E0C40ED11C1296BC901297F9
:105130001396AC91B5E0CB16D10440F0B282A383B4
:1051400091828082D9016D937C9309C00E5F1F4FBD
:10515000800F911FF90191838083EB2DFA2FE114C9
:10516000F10431F0D7011396FC93EE93129741C0EE
:10517000F093F307E093F2073CC06816790608F451
:105180003C017D0112960D90BC91A02DB7CF80916E
:10519000F0079091F10788169906E1F466167706F4
:1051A000C8F48091100190911101009741F48DB7DE
:1051B0009EB74091140150911501841B950BE8177F
:1051C000F907C8F4F093F107E093F007F901718350
:1051D00060830FC0CB010E941B277C01009759F010
:1051E000A801BE010E940729CE010E94B327C70172
:1051F00004C0CE0102C080E090E0CDB7DEB7EEE0A3
:105200000C94AD2681E090E0F8940C941E29FB01EB
:10521000DC0102C001900D9241505040D8F7089532
:10522000DC0101C06D9341505040E0F70895FB014F
:10523000DC0101900D920020E1F7089515E0C9ED21
:10524000D5E004C0FE010E9415272196CA3DD10772
:06525000C9F7F894FFCF3E
:10525600FFFFFFFF00E1000000000000010000006A
:105266000000F407800000C18081000000850380F3
:10527600037B03760371036C03670362035B0356C8
:105286000351034C03470300000000090C1B107771
:105296000C1F0C2A0C9F0C7B0C0000000007191831
:1052A600188D1795174B17E71A00000000741B7C22
:1052B6001B9318951704060B190000000008191A0D
:1052C60018132195171421552100000000B617DF89
:1052D6000B9217911700000000000000009517952B
:1052E60017B411B4110000000009191C18132195F8
:1052F60017EB204D2100000000440C000000000ABE
:10530600191E1800000000861B8F1B5475726E3A1A
:105316002000436F6D7020706C617965643A2000DF
:10532600436F6D7020706C617965642E2E3A200093
:105336002D2D004A0051004B00410053004300440C
:105346000048005472756D7073003000202D2000E7
:10535600206F66203133000D0A00506C617965724A
:1053660020002920004D6500596F75004C6F736948
:105376006E673A2028002C2077696E6E696E673A50
:105386002028007472756D70206974004465736915
:1053960072653A200061310052616E6B203A0061FD
:1053A6003200613300613331200061333220006105
:1053B600333320006134004C6F73696E673A200006
:1053C6002C2077696E6E696E673A2000623220740F
:1053D60072756D700062332072616E646F6D0000CD
:00000001FF
